:020000040000FA
:100000000080002081010000490900005501000026
:1000100000000000000000000000000000000000E0
:100020000000000000000000000000008B01000044
:100030000000000000000000D3000000CD0C000014
:100040009101000091010000910100009101000068
:100050009101000091010000E50D000091010000F8
:100060009101000091010000590D0000C10D000038
:100070009101000091010000910100009101000038
:100080009101000091010000910100009101000028
:100090000448854600F05AFA00480047B7060000B9
:1000A000C046C04600800020EFF3108072B6704753
:1000B00080F3108870472A4A1368012B03D001236C
:1000C0001360284A1060284A1160284828490160B6
:1000D0007047EFF3108272B62148016800291DD0E5
:1000E000002101601F48016800290AD0EFF309814F
:1000F000203900680160F0C144464D4656465F46CF
:10010000F0C1194909680968F0C9F0B4F0C9A046FE
:10011000A946B246BB46F0BC81F3098882F3108839
:10012000042040420047104908600E490020086042
:100130000B49012008600F480F4902681143016014
:100140000A480B4901600D480068006880F3088880
:1001500062B67047EFF3098000B50FF0F1FF00BD04
:100160001C000020140000201800002004ED00E016
:100170000000001020ED00E00000FFFF08ED00E0AF
:100180000448804704480047FEE7FEE7FEE7FEE735
:10019000FEE70000DD0C00009100000030B50B46CA
:1001A000014600202022012409E00D46D5409D4251
:1001B00005D31D469540491B2546954040191546D7
:1001C000521E002DF1DC30BD70B5002425460028FC
:1001D00001DA01244042002901DA01254942FFF7F2
:1001E000DDFFAC4200D04042002C00D0494270BD3F
:1001F000F8B500242546002904DA0E460124002122
:100200004042B141002B04DA1E4600235242012530
:10021000B34100F023F98C4617461E46AC4203D08A
:10022000002540428D41AC46002C02D000265742AA
:100230009E4161463A46334601B0F0BDF0B51FB469
:1002400086B000200090019002900698069980B236
:1002500004900798090C020400141143079000272A
:10026000089D099806913E463C4603900398A9B222
:100270000204000C039004982D0C15434843002100
:10028000224600F01BF9C719714110340E46402C6C
:10029000ECDB3846029A00F011F9009A019B8018B5
:1002A0000090594102980191103002904028CCDB17
:1002B00000980BB0F0BD00000549064A086850439D
:1002C000054A801808604008704701490860704777
:1002D000000400206D4EC6413930000003460B4338
:1002E0009B0703D009E008C9121F08C0042AFAD2EC
:1002F00003E00B780370401C491C521EF9D2704772
:10030000D2B201E00270401C491EFBD270470022AD
:10031000F6E710B513460A4604461946FFF7F0FF04
:10032000204610BD421E5378521C002BFBD10B7887
:100330001370491C521C002BF9D1704730B505468B
:100340002A460B4610781C78521C5B1C002801D0F2
:10035000A042F7D0002C03D0002802D06D1CEFE79C
:10036000284630BD10B5044605E00B780370401CEC
:10037000002B00D0491C521EF7D2204610BDCAB235
:10038000401E4178401C8A4202D00029F9D1002049
:100390007047421C0178401C0029FBD1801A70472D
:1003A00010B5002200E0521C835C8C5CA34201D19A
:1003B000002BF8D1D8B2E1B2401A10BD30B50446D6
:1003C0000020034600E05B1C934203D2E05CCD5C5E
:1003D000401BF8D030BD03460A780270401C491C0F
:1003E000002AF9D11846704730B50546002003466B
:1003F00000E05B1C934205D2EC5CC85C201A01D182
:10040000002CF6D130BD0022CBB20178994200D148
:100410000246401C0029F8D1104670470321001DF8
:10042000401E037812021A43491EF9D51046704740
:10043000034603220870000A491C521EFAD51846CA
:10044000704770B5064600F055FD046805460A225F
:100450000021304600F042F82C6070BDF0B51FB4AA
:100460000646002082B005464024019100901BE022
:10047000019922460F46304600F07AF8049A059B0F
:10048000801A994110D310461946224600F016F8FA
:10049000361A8F410197224601200021009F00F06B
:1004A0000DF838184D4100902046641E0028DFDC0E
:1004B000019B00982946324607B0F0BD10B5202AAE
:1004C00004DB0146203A9140002010BD91402023DA
:1004D0009C1A0346E3401943904010BDF7B5009CB9
:1004E0000F4600262578641C002D05D000F052F838
:1004F0000068405DC007F5D12B2D02D02D2D18D0FE
:10050000641E39462046029A00F048F8002F04D0B5
:100510003968A14201D1009939607105022400298E
:100520000BDA4042002803DD00F0E4FC0460A00781
:10053000FEBD012080020643E3E70028F8DA00F060
:10054000D9FC04600048FEBDFFFFFF7F064C01257B
:10055000064E05E0E36807CC2B430C3C984710346B
:10056000B442F7D3FFF798FD8CBF0100ACBF010088
:1005700010B5202A04DB0846203AD040002110BDE7
:100580000B46D340D0402024A21A9140084319467C
:1005900010BD00000048704794B30100F7B582B069
:1005A000029C00272078641C15460197302802D051
:1005B000002D15D015E020780127641C782804D080
:1005C000582802D0002D09D00BE0002D01D0102DAD
:1005D00007D1002710252078641C02E0082500E0E0
:1005E0000A250026009610E00099012769430818A3
:1005F000020C294680B2714300908E18380486425E
:1006000001D3012001902078641C294600F019F8DC
:100610000028E9DA0398002805D0002F01D0641ED5
:1006200000E0029C04600198002806D000F062FC03
:1006300002210160C81E05B0F0BD009930040843D6
:10064000F9E73A2800D23038202302469A43412A5B
:1006500001D310463738884201D30020C043704789
:1006600070B58C180578401C6B075B0F01D10378BF
:10067000401C2A1106D10278401C03E006780E7057
:10068000401C491C5B1EF9D12B0705D40023521EC8
:100690000DD40B70491CFAE70378401CCB1A921C4E
:1006A00003E01D780D70491C5B1C521EF9D5A14258
:1006B000D8D3002070BD10B514F066F8002010BD2E
:1006C000002906D001290ED0022916D0032928D1ED
:1006D0001DE0184A928A8243164B9A821A46D26AC1
:1006E0000243DA621EE0134A928A8243114B9A82D5
:1006F0001A46926A02439A6214E00E4A928A0243B0
:100700000C4B9A821A46D26A0243DA620AE0094A1C
:10071000928A0243074B9A821A46926A02439A626D
:1007200000E000BF00BF034B98831A46128A0243C1
:100730001A8270478010004000B50B0000F0CCFB1F
:10074000050412202E384200204A526B82431F4B70
:100750005A631A46126B82431A631A46126A82431C
:100760001A6230E0194A526B8243184B5A631A4698
:10077000126B02431A631A46126A82431A6222E01B
:10078000124A526B0243114B5A631A46126B824350
:100790001A631A46126A82431A6214E00B4A526BB9
:1007A00082430A4B5A631A46126A02431A620AE0EB
:1007B000064A526B0243054B5A631A46126A0243B9
:1007C0001A6200E000BF00BF00BD000080100040C2
:1007D000002906D0012911D002291CD0032934D1C7
:1007E00026E01E4AD28A82431C4BDA821B4A4032E0
:1007F000D2680243194B4033DA6027E0174AD28AA5
:100800008243164BDA82154A403292680243134BF8
:1008100040339A601AE0114AD28A02430F4BDA82BF
:100820000E4A4032D26802430C4B4033DA600DE08E
:100830000A4AD28A0243094BDA82084A4032926855
:100840000243064B40339A6000E000BF00BF034BF9
:10085000D8831A46528A02435A8270478010004059
:1008600000B50B0000F038FB050412202E384200C2
:10087000204A526982431F4B5A611A4612698243C9
:100880001A611A46126882431A6030E0194A5269A6
:100890008243184B5A611A46126902431A611A467A
:1008A000126882431A6022E0124A52690243114BD5
:1008B0005A611A46126982431A611A4612688243C3
:1008C0001A6014E00B4A526982430A4B5A611A4675
:1008D000126802431A600AE0064A52690243054B55
:1008E0005A611A46126802431A6000E000BF00BF56
:1008F00000BD0000C010004010B510480089C4B20F
:10090000C0202040802801D10D4810BDC0202040CB
:10091000402805D1E106C90E0A48FFF755FCF4E767
:10092000C0202040002805D1E106C90E0448FFF789
:100930004BFCEAE77D200002E7E7000000100040E2
:100940000048E80100389C1C00202449897A0822CC
:10095000114000290BD15721204A40321170A821A3
:1009600011701E49897A082211431C4A917257213D
:100970001A4A40321170A82111700521174A1181BD
:10098000164920310988032252029143134A20322A
:1009900011801249897A10221143104A9172002164
:1009A0000E4A4032117017E00C4920318979C9078D
:1009B000C90F002901D0002000E0401C7D21090161
:1009C000884209D95721054A40321170A821117077
:1009D0000121917100211170E6E700000010004034
:1009E000C206D20E01219140014A116070470000F9
:1009F00000E100E010B5002819DA1A4A03071B0FBE
:100A0000083B9B089B00D2588307DC0EFF23A340C2
:100A10009A438B071B0E8407E40EA3401A43114B25
:100A20000407240F083CA408A4001A5118E00E4A39
:100A300003231B02D21883089B00D2588307DC0EC5
:100A4000FF23A3409A438B071B0E8407E40EA340A9
:100A50001A43054B032424021B198408A4001A51CD
:100A600010BD00001CED00E000E100E0002823D1F3
:100A70005722254B1A70A8221A7080220A40002A99
:100A800007D0214A403AD27B02231A431E4B403BF7
:100A9000DA731D4A403A927A1C230B409A431A4B50
:100AA000403B9A72184A203AD27B8B079B0F9A439D
:100AB000154B203BDA7322E05722134B1A70A82201
:100AC0001A7080220A40002A07D00F4A403AD27B8F
:100AD00002239A430C4B403BDA730B4A403A927A1A
:100AE0001C230B401A43084B403B9A72064A203A9B
:100AF000D27B8B079B0F1A43034B203BDA730022F8
:100B0000014B1A70704700004010004010B50446B9
:100B1000002C0BD1572014490870A8200870002021
:100B2000114920390871104908701BE057200E49FF
:100B30000870A820087001200B49203948710871FD
:100B400000200949087001200BF068F85720064979
:100B50000870A82008700D20034920390871002072
:100B60000149087010BD00004010004000B50300AE
:100B700000F0B2F90D081A2C37414C56606A7580A6
:100B80008B96A10057214F4A1170A82111704D4931
:100B90002039C97B042291434A4A203AD173C821A3
:100BA000484A403A118187E05721464A1170A821EE
:100BB000117044492039C97B04221143414A203A2B
:100BC000D173C8213F4A403A118175E057213D4A0F
:100BD0001170A82111705121C9003A4A403A11817F
:100BE0006AE05721374A1170A82111703649354AF9
:100BF000403A118160E05721324A1170A8211170EA
:100C0000812189002F4A403A118155E057212D4A10
:100C10001170A821117088212A4A403A11814BE0B5
:100C20005721284A1170A82111700221254A403A03
:100C3000118141E05721234A1170A821117004212C
:100C4000204A403A118137E057211E4A1170A821ED
:100C50001170932189001B4A403A11812CE05721E1
:100C6000184A1170A821117017494D31154A403AA0
:100C7000118121E05721134A1170A821117095218B
:100C80008900104A403A118116E057210D4A11702F
:100C9000A82111704B21C9000A4A403A11810BE08A
:100CA0005721084A1170A821117007495C31054A83
:100CB000403A118100E000BF00BF0021014A1170DD
:100CC00000BD0000401000400202000010B50FF00F
:100CD000D7FB11F081FA0FF0F1FB10BD10B55720D2
:100CE0000B490870A82008708820094940390881FC
:100CF000074800890421084305490881002008703D
:100D00000A200AF08BFF0120FFF700FF10BD000052
:100D10004010004004498978C02291438201114368
:100D2000014A9170704700000030004000280BD04D
:100D3000084A52780A43074B5A701A461278082319
:100D40001A43044B1A7004E0024A52788A43014B5A
:100D50005A7070470030004010B50FF091FB054805
:100D600000790107090F044819F0EAF80FF0A6FB13
:100D700010BD000000300040600000200449897868
:100D8000C022914382011143014A917070470000D3
:100D90000034004000280BD0084A52780A43074B21
:100DA0005A701A46127808231A43044B1A7004E04A
:100DB000024A52788A43014B5A707047003400400F
:100DC00010B50FF05DFB054800790107090F0448D5
:100DD00019F0B6F80FF072FB10BD000000340040AF
:100DE000B800002010B50FF04BFB26488079C007F3
:100DF000C00F002818D00120224988710846407988
:100E0000C007C00F002808D0002201211E4812F0A0
:100E100009FF1EA00FF062FB06E001211A4812F044
:100E200039FF1DA00FF05AFB1648807902210840B7
:100E3000002809D0002013492031087202201149EE
:100E4000887118480EF0B8FE0E48807904210840D9
:100E5000002802D004200B4988710A4880790821B3
:100E60000840002802D0082006498871054880798A
:100E700010210840002802D01020024988710FF08C
:100E80001DFB10BD008000407C0600207573623A97
:100E90002075700A000000007573623A20646F7755
:100EA0006E0A0000F0050020F8B582B28BB2040C87
:100EB0000D0C10465843002126465E43370C36047D
:100EC0008019794116466E43370C360480197941F2
:100ED00026466E438919F8BD30B47446641E2578E1
:100EE000641CAB4204D3635D5B00E31830BC18475D
:100EF0001D46F8E7004870470404002070B504461A
:100F00002546E017800F401980108000201A0ED16E
:100F100064212046FFF758F9002906D1FF219131BD
:100F20002046FFF751F9002901D1012070BD0020B2
:100F3000FCE700000146002900D17047C8B2002834
:100F400004D0C8B2114A105C401CF6E7FF20000232
:100F50000840002807D0FF200002084000120B4A7A
:100F6000105C0930E9E7FF2000040840002807D0A2
:100F7000FF20000408400014044A105C1130DCE734
:100F8000080E024A105C1930D7E7000058AF010084
:100F900002E008C8121F08C1002AFAD17047704742
:100FA000002001E001C1121F002AFBD1704770B57B
:100FB00004462F212046FFF726FA051E01D12046C0
:100FC00070BD681C0546FBE710B511F079F80028E4
:100FD00005D00021C94303480FF050FF10BD002089
:100FE000FCE70000600B002010B5044611F068F823
:100FF000002802D001480FF0DFFE10BD600B00207A
:1010000070B5044620680546143D284611F03AF8AC
:10101000002070BD70B505460EE0FFF745F80646A6
:1010200028680446143C0020C0432063204611F089
:1010300029F83046FFF73CF828460FF0A5FA0028BB
:10104000EBD0002070BDF7B505460C46204611F0E8
:1010500075F80298002802D0012822D105E0214627
:10106000143128460FF079FA1CE02E680EE037465E
:10107000143F3520015DC05D814206DA21461431FE
:10108000384614300FF069FA02E03668AE42EED10D
:1010900000BFAE4204D12146143128460FF05DFA5C
:1010A00000E000BF00BF0020FEBD10B50446204692
:1010B00014300FF03EFA002010BDF7B58AB0064696
:1010C000002400E0641C305D202805D0305D092834
:1010D00002D00B988442F5D3002C02D1601E0DB0D3
:1010E000F0BD214630460BF045FB0546002D01D1F1
:1010F000401EF4E72822002168460FF079FC6A467A
:1011000030460B990BF0C6FB0746002F01D1401E5D
:10111000E5E769463846A8470C9908600020DEE7F5
:10112000F8B50646144637462546002D01D1601E07
:10113000F8BD6A882988386C0368304698470020D3
:10114000F6E7F8B5074614461D4600972646002EDA
:1011500001D0042D01D00020F8BD31880098006C2A
:1011600082683846904770802846F5E7F8B507460C
:1011700014461D4600972646002E01D0042D01D0AE
:101180000020F8BD728831880098006C43683846AA
:1011900098472846F5E70000F0B587B006460C46AC
:1011A00000200590002E01D0002C06D122A00FF0C7
:1011B00095F90720C04307B0F0BD30680690F56888
:1011C000E068002800D1F6E7E068022805D122A0F7
:1011D0000FF084F90720C043EDE7E068012809D14A
:1011E000A17C0022069812F0E5F80746002F01D0F6
:1011F0003846E0E7322010F09FFE1CA06A6829689C
:101200000FF06CF900202968C860642000902968FC
:101210008A690D23906D01AA11F065FD059005986E
:101220000D2805D016A00FF059F90720C043C2E7DA
:101230000020C043BFE7000074686520696E7465D4
:101240007266616365206973206E6F7420617661D8
:10125000696C61626C650A00706970652073746105
:10126000747573206572726F720A00007069706520
:10127000733120307825782C20307825780A0000CA
:10128000726563656976652074686520637377208D
:101290006166746572207374616C6C206661696C40
:1012A00065640A0070B5044606480068FFF742FE10
:1012B000451EE800044908580646143E256030469D
:1012C00070BD0000E0020020600A002003480068B2
:1012D000002802D101200149086070472C0000203D
:1012E000FEB506460F4615460295F46C29E0FEF75A
:1012F000DBFE0090E088A188884206D1A068002823
:1013000003D10098FEF7D4FE1DE0E1882068405C20
:101310000190E088401CE080E188B06C8001000C06
:10132000814201DB0020E080A068012801D100207B
:10133000A0600098FEF7BCFE019838707F1C6D1EFF
:1013400000BF002DD3D100BF0298401BFEBDF8B5F1
:1013500004460E4615462F46206D009024E0307856
:101360000A2811D1208B4021084000280CD0206C85
:101370000D21826820469047401C002804D1411E60
:1013800000980EF04DFC0FE03178206C826820460A
:101390009047401C002804D1411E00980EF040FCEC
:1013A00002E0761C6D1E00BF002DD8D1781BF8BD61
:1013B00070B510F085FE0446FEF776FE0546204621
:1013C0000FF062FF2046443010F0B6FF04213420B5
:1013D0000155204610F0A2FD2846FEF769FE0FF0E9
:1013E00089FE70BDFEB5044615461E460A9F20467E
:1013F00014304060006000BF256266620898A062F9
:101400000998E0622321E26AA06A0FF0F1FAE16A2A
:10141000A06A4018021F606A0190206A114B009078
:1014200001990EF09BFFE0613620075535200755E6
:101430000020A0630B98E0630B98206400202063D9
:10144000002134200155002020676067009023466A
:10145000054A214601902046443010F081FF0020CB
:10146000FEBD0000B11300006D14000070B504460D
:101470002546FEF719FE06460120C043286328468C
:1014800014300FF0A4F828460FF0C4FE3046FEF7E3
:101490000FFE0FF02FFE70BDFFB581B004460E4663
:1014A00017460A986072607A400840006072E661F0
:1014B00027620020A06204986062002506E0EA002E
:1014C0002146143150180FF037F86D1C012DF6DB52
:1014D00005B0F0BD70B50546002406E0E2002946DF
:1014E000143150180FF085F8641C012CF6DB70BD28
:1014F000F1B582B0029D45E0FEF7D6FD0190284689
:101500000FF032F800280AD010F0DAFD064610F08D
:1015100015FE0198FEF7CCFD0FF0ECFD32E02868D7
:10152000044620460FF04AF82C61208A400840000B
:101530002082002020640198FEF7BAFD2046A268B0
:10154000E1689047002028612F460EF065FD13E00A
:10155000384614300FF068FF0646B01C002804D14E
:10156000384614300FF0F8FE06E0002E01D100BF1F
:1015700003E00026F64300E0EAE700BF0EF05CFD62
:1015800000BF00BFB8E7000010B50446024920467E
:1015900000F004F810BD00005005002070B50546AD
:1015A0000C464948006810F090FBA9698900884200
:1015B00007DD4648006810F088FB296989008842E9
:1015C00037DC4148006800682060404800680068D7
:1015D000606020460830E9680CF0E8FB207A30288B
:1015E00001D1202020722020A07220460B30A96853
:1015F0000CF0DCFB3A20607320460E3069680CF07A
:10160000D5FB3A2020742046113029680CF0CEFB1F
:101610002020E074142160180CF0C8FB0021204643
:1016200016300CF0C3FB0A2020760020607620469E
:1016300070BDA8698000244909680858206028699D
:101640008000224909680858606020460830E9682F
:101650000CF0ACFB207A302801D120202072202011
:10166000A07220460B30A9680CF0A0FB3A206073F2
:1016700020460E3069680CF099FB3A202074204611
:10168000113029680CF092FB2020E074104A69693F
:1016900088186421FEF798FD06463146204614302E
:1016A0000CF084FB0A4A696988186421FEF78CFDF6
:1016B0000E46204616300CF079FB0A2020760020DA
:1016C00060762046B4E700000000002004000020FF
:1016D0006C07000030B595B0054600222946134836
:1016E00002F0BAFC002805DA294611A00EF0F6FE39
:1016F00015B030BD00BF5122002168460FF078F9C7
:1017000050226946094802F01BFD0446002C03D014
:1017100069460BA00EF0E2FE002CECD109A00EF001
:10172000DDFE024802F048FC00BFE1E73C07002074
:101730004F70656E202573206661696C65640A00D0
:10174000257300000A0000000146312903D20C2253
:101750004A43014BD018704730A7010010B5002252
:10176000034904A00EF0D2FB0446204610BD000041
:101770003400002070696E00F8B50E461546069FCD
:101780003046FFF7E1FF0446002C01D10620F8BDEA
:10179000FEF78AFC00906068002822D1002D06D058
:1017A000012D09D0022D0CD0032D14D10EE0002103
:1017B000A068FEF785FF13E00121A068FEF780FF17
:1017C0000EE00221A068FEF77BFF09E00321A0687C
:1017D000FEF776FF04E00098FEF76AFC0620D6E7E5
:1017E00022E0002D06D0012D09D0022D0CD0032DB2
:1017F00014D10EE00021A068FEF7EAFF13E00121FA
:10180000A068FEF7E5FF0EE00221A068FEF7E0FF0A
:1018100009E00321A068FEF7DBFF04E00098FEF773
:1018200047FC0620B3E700BF0098FEF741FC00200C
:10183000ADE7024600207047F8B507460E4615464C
:101840003046FFF781FF0446002C00D1F8BD6068E8
:10185000002822D1002D04D10021A068FEF76CFFE2
:101860003DE0012D04D10121A068FEF765FF36E0BF
:10187000022D04D10221A068FEF75EFF2FE0032DA8
:1018800004D10321A068FEF757FF28E0042D26D1DC
:101890000421A068FEF750FF21E0002D04D10021B3
:1018A000A068FEF7DDFF1AE0012D04D10121A06838
:1018B000FEF7D6FF13E0022D04D10221A068FEF747
:1018C000CFFF0CE0032D04D10321A068FEF7C8FF71
:1018D00005E0042D03D10421A068FEF7C1FF00BF7D
:1018E000B4E7000070B506460D462846FFF72CFF0A
:1018F0000446002C00D170BD6068002804D1054862
:10190000406AA1680840F6E7024840304068A16894
:101910000840F0E780100040F0B507460E46154637
:101920003046FFF711FF0446002C00D1F0BD60687F
:1019300000280FD1002D06D01148806AA168084305
:101940000F49886219E00E48C06AA16808430C4933
:10195000C86212E0002D08D0094840308068A168B4
:10196000084307494031886007E005484030C068B7
:10197000A168084302494031C86000BFD6E70000B3
:101980008010004070B50546002D09D102F024FEFC
:10199000204921A00EF0A2FD03F0F8F9002070BD4F
:1019A0002846FEF7F6FCFF210131884206D91A20AD
:1019B000C0430FF001FF0020C043F0E7294600209C
:1019C00002F03AFF0446002C05D11A20C0430FF064
:1019D000F3FE601EE3E702F0FFFD20460CF030FA54
:1019E0000646002E06D120460EF04AFB03F0CEF943
:1019F000701ED4E7304600F0E9F8FF22013221469C
:101A00000448FEF7AFFC20460EF03AFB03F0BEF9A7
:101A10000020C4E71001002025730A000146086871
:101A2000002802D00868012803D1C868401C00289B
:101A300002D10020C04370470020FCE7F3B581B01D
:101A400004460020E070401EA063204602990AF080
:101A500061FC002801D00420FEBD20463C30FF3050
:101A6000FF3008F0AFFF07463C20055DEB2D03D0AB
:101A7000E92D01D0E82D4AD12848874208D1082213
:101A800027A120468E30FEF799FC002800D1E3E71D
:101A90002046473008F096FF06464920055D701E37
:101AA0003040002833D10120400286422FDBC000A5
:101AB00086422CDC002D2AD0681E2840002826D122
:101AC00020464A3008F07EFF002820D04C20005DE0
:101AD000401E01281BD820464D3008F073FF002817
:101AE00015D020464F3008F06DFF802807DA2046D9
:101AF0005C3008F058FF01210904884207D32046D2
:101B0000523008F05FFF002801D00020A4E703480E
:101B1000874201D102209FE703209DE755AA0000DC
:101B200046415433322020200000000010B502A0AE
:101B30000EF0D4FC002010BD1B5B324A1B5B48003A
:101B4000F3B583B0064630680290B06A051D02986E
:101B500081890498FEF722FB01900298418901983F
:101B6000FEF71CFB074600BF10CD002C02D1002061
:101B700005B0F0BDA74200D202E03F1B2D1DF3E7E8
:101B800000BF2868C019F3E770B50646304606F076
:101B90007DFE0546002D05D10F20C0430FF00CFE41
:101BA000681E70BD284602F007FA0446284606F073
:101BB00009FF002C05DA20460FF0FEFD0020C0438F
:101BC000EFE7284606F0FEFE0020EAE770B505467E
:101BD000286806F05BFE0646002E05D10F20C043A4
:101BE0000FF0EAFD701E70BD304602F0E5F90446C4
:101BF000304606F0E7FE304606F0E4FE28460EF0DA
:101C00003FFA002C05DA20460FF0D6FD0020C04335
:101C1000E9E70020E7E70246891E106A801E884235
:101C200001D80020704750894843536B1818F9E7D2
:101C300070B505460E46012D07D109A00EF04EFCE9
:101C40000DA00EF04BFC002070BD012404E0A100AB
:101C50007058FFF73FFD641CAC42F8DB0020F3E74F
:101C600055736167653A20636174205B46494C4552
:101C70005D2E2E2E0A000000436F6E636174656E48
:101C80006174652046494C452873290A000000000C
:101C900070B504460D46012C04D1094909A00EF087
:101CA0001DFC0AE0022C08D16868FFF76BFE0028D3
:101CB00003D005A069680EF011FC002070BD000083
:101CC0001001002025730A004E6F20737563682091
:101CD0006469726563746F72793A2025730A000033
:101CE00070B505460C46032D06D006A00EF0F6FB97
:101CF0000AA00EF0F3FB03E0A168606800F048FD65
:101D0000002070BD55736167653A20637020534FA2
:101D10005552434520444553540A0000436F70799F
:101D200020534F5552434520746F20444553542E41
:101D30000A00000070B505460C46022D03D00CA029
:101D400001F0FCFA12E00BA16068FEF729FB002805
:101D500005D00AA16068FEF723FB002803D108A084
:101D60000EF0BCFB02E0606801F0E8FA002070BDF4
:101D70002F0000002D2D68656C7000002D6800009C
:101D80006466205B706174685D0A0000F8B5054602
:101D90000C46022D04D113A061680EF09FFB1EE0DB
:101DA000032D19D100221049A0680CF01DF8064639
:101DB000002E0CDB6068FEF7ECFA07463A46304628
:101DC000616818F06CFC3046FFF7DEFE03E007A008
:101DD000A1680EF083FB02E00AA00EF07FFB00205A
:101DE000F8BD000025730A00420400006F70656EA4
:101DF0002066696C653A2573206661696C656421AB
:101E00000A00000055736167653A206563686F20BA
:101E100022737472696E6722205B66696C656E61FD
:101E20006D655D0A000000003EB504460D460020C9
:101E30000290019000906A4601A902A80EF0B4FD3C
:101E400006A002990EF04AFB08A001990EF046FB8D
:101E50000AA000990EF042FB00203EBD746F746131
:101E60006C2020203A2025640A0000007573656408
:101E7000202020203A2025640A0000006D61786946
:101E80006D756D203A2025640A00000070B5044687
:101E90000D46012C03D1044809F082FC02E0686879
:101EA00009F07EFC002070BD1001002070B50446D2
:101EB0000D46012C06D106A00EF010FB0DA00EF071
:101EC0000DFB03E0002168680AF040F8002070BDB7
:101ED00055736167653A206D6B646972205B4F5082
:101EE00054494F4E5D204449524543544F52590A7C
:101EF00000000000437265617465207468652044C9
:101F000049524543544F52592C20696620746865E4
:101F10007920646F206E6F7420616C7265616479E2
:101F20002065786973742E0A00000000F8B5054634
:101F30000C46002612A7022D05D13846616802F032
:101F40005BFB064613E0042D0CD10EA16068FEF782
:101F500027FA00280BD1A7683846E16802F04CFB4D
:101F6000064604E008A00EF0B9FA0020F8BD002EE5
:101F700003D031460CA00EF0B1FA0020F6E70000C5
:101F8000656C6D002D74000055736167653A206DB6
:101F90006B6673205B2D7420747970655D206465B9
:101FA000766963650A0000006D6B6673206661697F
:101FB0006C65642C20726573756C743D25640A0031
:101FC000FEB506460D46012E1AD121A00EF086FA66
:101FD00027A00EF083FA2E4C0CE0002C09D060688C
:101FE000002806D063682268A068016829A00EF066
:101FF00075FA1034264840308442EED30020FEBDEE
:10200000042E1ED16C68AF68E86801903B462146FB
:1020100025A0019A0EF062FA00200346009039468E
:102020002046019A02F02CFB002804D127A00EF0D4
:1020300055FA0020E3E728A00EF050FA0020C04334
:10204000DDE728A00EF04AFA0020C043D7E70000E1
:1020500066696C6573797374656D20206465766953
:10206000636520206D6F756E74706F696E740A0001
:102070002D2D2D2D2D2D2D2D2D2D20202D2D2D2DAA
:102080002D2D20202D2D2D2D2D2D2D2D2D2D0A00EA
:10209000D8060020252D3130732020252D367320C1
:1020A00020252D730A0000006D6F756E7420646525
:1020B0007669636520257328257329206F6E746FF8
:1020C000202573202E2E2E200000000073756363E0
:1020D000656564210A0000006661696C6564210A17
:1020E0000000000055736167653A206D6F756E746E
:1020F000203C6465766963653E203C6D6F756E7447
:10210000706F696E743E203C6673747970653E2E04
:102110000A000000F3B581B00C460198032806D0F0
:102120002CA00EF0DBF931A00EF0D8F950E000251C
:102130003CA0A26861680EF0D1F9002201210904D7
:10214000A0680BF051FE0746002F25DB3846FFF74D
:102150001BFDFF2001300EF055FA0546002D04D17D
:1021600033A00EF0BBF9681FFEBD60680FF0ADFD37
:102170006168461804E030782F2800D103E0761E0D
:102180006068B042F7D100BF00962DA2FF2128461B
:10219000A3680FF015FD0EE000221146A0680BF0B9
:1021A00023FE0746002F05DB3846FFF7EDFCA0684D
:1021B00018F022FAA568294660680DF0E2FB002DB0
:1021C00005D0A068A84202D028460DF059FF00BFF4
:1021D0000020C9E755736167653A206D7620534F3B
:1021E0005552434520444553540A000052656E61E0
:1021F0006D6520534F5552434520746F204445531D
:10220000542C206F72206D6F766520534F555243CA
:102210004528732920746F204449524543544F5236
:10222000592E0A002573203D3E2025730A00000028
:102230006F7574206F66206D656D6F72790A00008E
:1022400025732F257300000070B504460D4609F074
:10225000BDF8002070BD000070B504460D4603496E
:1022600003A00EF03BF9002070BD0000100100201B
:1022700025730A00F0B593B007460C460020129073
:1022800011901090012F08D13FA00EF027F946A021
:102290000EF024F9002013B0F0BD606800782D28FE
:1022A00025D100261DE06068805D2D280FD06628AE
:1022B00004D0722805D076280AD105E001201290BA
:1022C0000DE0012011900AE00120109007E006E0E7
:1022D0006068815D3CA00EF001F90020DBE700BFE3
:1022E000761C6068805D0028DDD17F1E241D0125DD
:1022F00045E0A9006058694612F0E2FB002835D19C
:102300006846C08801218903084000280FD0119831
:10231000002805D1A800215831A00EF0DFF82DE0EB
:10232000A9006058109A129903F0C8F826E0684690
:10233000C0880121C903084000281FD0A9006058A7
:1023400018F05AF9002808D01298002816D1A800D1
:1023500021582CA00EF0C2F810E0109800280DD0E3
:10236000A80021582CA00EF0B9F807E01298002818
:1023700004D1A80021582CA00EF0B0F86D1CBD426D
:10238000B7DB002087E7000055736167653A20726C
:102390006D206F7074696F6E2873292046494C4513
:1023A0002E2E2E0A0000000052656D6F76652028E3
:1023B000756E6C696E6B29207468652046494C45C2
:1023C0002873292E0A0000004572726F723A20426B
:1023D0006164206F7074696F6E3A2025630A000093
:1023E00063616E6E6F742072656D6F766520272550
:1023F00073273A2049732061206469726563746FA2
:1024000072790A0063616E6E6F742072656D6F760B
:102410006520272573270A0072656D6F7665642035
:10242000272573270A00000063616E6E6F742072A7
:10243000656D6F766520272573273A204E6F2073D0
:102440007563682066696C65206F722064697265C7
:1024500063746F72790A0000F0B587B006460D46C6
:1024600000200690059000240490039002900190B3
:10247000022E05DA4BA00EF031F8601E07B0F0BD59
:10248000022E04D10A200290686805901CE04FA13A
:1024900068680FF0F7FB002810D1A86800782B2897
:1024A00004D0A868FDF7CDFF029004E0A968481C9D
:1024B000FDF7C7FF0190E868059005E039A00EF030
:1024C0000DF80020C043D9E7002105980BF08CFCE3
:1024D0000746002F05DA3EA00EF000F80020C043AA
:1024E000CCE707E0002C00D1641C6846007E0A2877
:1024F00000D1641C012206A938460DF0AFF800286F
:10250000F0DC214637A00DF0E9FF0198002810D03B
:102510000198844204D30198201A401C029008E0DC
:1025200037A00DF0DBFF3846FFF72EFB0020C0433D
:10253000A4E70298A04208D931A00DF0CFFF384699
:10254000FFF722FB0020C04398E73CA002990DF062
:10255000C5FF0298201A049000221146384609F05F
:10256000BFF90FE004990398884204D36846017EBE
:102570003AA00DF0B3FF6846007E0A2802D1039806
:10258000401C0390012206A938460DF067F8002888
:10259000E8DC33A00DF0A2FF3846FFF7F5FA002083
:1025A0006CE7000055736167653A207461696C20BF
:1025B0005B2D6E206E756D626572735D203C666981
:1025C0006C656E616D653E0A000000002D6E0000B6
:1025D00046696C6520646F65736E27742065786941
:1025E00073740A000A546F74616C204E756D6265D5
:1025F00072206F66206C696E65733A25640A00006C
:102600000A4572726F723A5265717569726564201B
:102610006C696E657320617265206D6F72652074E0
:1026200068616E20746F74616C206E756D62657286
:10263000206F66206C696E65730A000052657175C3
:1026400069726564204E756D626572206F66206CDC
:10265000696E65733A25640A000000002563000076
:102660000A00000070B504460D466E68022C05D0C5
:102670000CA00DF033FF0020C04370BD314611A007
:102680000DF02CFF304602F089FB002805DA11A07E
:102690000DF024FF0020C043EFE711A00DF01EFF56
:1026A0000020EAE755736167653A20756E6D6F75B6
:1026B0006E74203C6D6F756E74706F696E743E2E13
:1026C0000A000000756E6D6F756E74202573202EE4
:1026D0002E2E20006661696C6564210A00000000EE
:1026E00073756363656564210A000000F3B583B008
:1026F0000C4620461A3008F065F9002802D0002068
:1027000005B0F0BD20788006800E401E0D214843A4
:10271000054601200290002623E01B49895D081927
:1027200008F050F901900298002813D0FF2D0CD822
:10273000019806F0E7F9074629466D1C4A000399FF
:10274000885A06F0DFF9874201D00020D8E70198C7
:10275000029005E00D490198884201D00020CFE7A2
:10276000761C0D2ED9D3207840210840002809D0AE
:102770000298002806D069000398405A002801D02A
:102780000020BDE70120BBE7ECAD0100FFFF00002A
:10279000F0B591B006460F46002401A9304601F07D
:1027A00049FD002805DA314644A00DF097FE11B02E
:1027B000F0BD684640890F210903084001218903C3
:1027C000884202D10120044301E00220044301A910
:1027D000384601F02FFD002800DA0DE068464089F8
:1027E0000F210903084001218903884202D10420F6
:1027F000044301E008200443E007C00F002807D08D
:1028000008202040002803D032A00DF067FECEE75C
:102810000220204000281FD004202040002816D08D
:102820003046FEF7C4FB01460090384602F004F83B
:102830000546002D03D132A00DF050FEB7E7294622
:10284000304600F005F928460DF01AFC34E0394610
:10285000304600F0FDF82FE00420204000281AD078
:102860003046FEF7A4FB01460090384601F0E4FF35
:102870000546002D03D122A00DF030FE97E7002180
:10288000284609F063FB2946304600F041F8284607
:102890000DF0F6FB10E00C202040002808D10021AC
:1028A000384609F053FB3946304600F031F803E072
:1028B0003946304600F02CF800BF78E7636F707936
:1028C000206661696C65642C206261642025730A4E
:1028D000000000006370206661696C642C206370E6
:1028E0002064697220746F2066696C6520697320AA
:1028F0006E6F74207065726D6974746564210A006E
:102900006F7574206F66206D656D6F72790A0000B7
:10291000F0B5DBB005460E4601221204294601A897
:1029200001F09AFB002805DA294639A00DF0D6FD02
:102930005BB0F0BD00BFFF22053200211AA80EF0E7
:1029400057F8FF2205321AA901A801F051FB0446ED
:10295000002C54DD00200090002731A11BA8FDF7BA
:102960001FFD002805D02FA11BA8FDF719FD002889
:1029700000D145E01BA9284601F05EFF0090002829
:1029800003D129A00DF0AAFD3CE01BA9304601F0BF
:1029900053FF071E06D124A00DF0A0FD00980DF0F6
:1029A0006FFB2FE0402200210AA80EF021F80AA9AF
:1029B000009801F03FFC002804D01BA91EA00DF0D8
:1029C0008DFD1DE06846C08D0F21090308400121DF
:1029D0008903884208D10021384609F0B7FA394600
:1029E0000098FFF795FF03E03946009800F030F8B3
:1029F00000980DF045FB38460DF042FB00BF00BFCC
:102A0000002C98DC00BF01A801F0D6FA00BF8FE7C8
:102A10006F70656E202573206661696C65640A00BD
:102A20002E2E00002E0000006F7574206F66206D42
:102A3000656D6F7279210A006F70656E2066696C32
:102A4000653A202573206661696C65640A000000A0
:102A5000F3B589B00646012000030DF0D3FD05460D
:102A6000002D04D125A00DF039FD0BB0F0BD0022E2
:102A70003146684601F0F0FA002807DA28460DF0E2
:102A8000FFFA314621A00DF029FDEEE7412223484F
:102A90000A9901F0E1FA00280ADA28460DF0F0FA66
:102AA000684601F089FA1EA00A990DF017FDDCE7CF
:102AB00000BF012212032946684601F041FB04468B
:102AC000002C0DDD22462946144801F063FC074620
:102AD000A74204D0394617A00DF000FD02E000BF68
:102AE000002CE6DC00BF684601F066FA0B4801F0F6
:102AF00063FA28460DF0C4FA00BFB6E76F7574207C
:102B00006F66206D656D6F72790A000052656164B1
:102B1000202573206661696C65640A003C0700200B
:102B20005772697465202573206661696C65640A53
:102B30000000000057726974652066696C65206446
:102B4000617461206661696C65642C206572726EC7
:102B50006F3D25640A000000F3B581B00198046858
:102B60000298002807D1A769002F02D0206AB84236
:102B700015D8012713E00299019806F0E5FD0546F6
:102B8000022D01D20120FEBD681C002801D128467B
:102B9000F9E7206AA84201D92846F4E7029FE069D4
:102BA000002800D1EFE70026029887421AD17E1C48
:102BB000206AB04200D802263146019806F0C4FDD2
:102BC0000546012D02D0681C002801D12846DAE70D
:102BD000002D07D0A569022D03D3206AA84200D991
:102BE0002F460026002E1ED13E4600BF761C206ACE
:102BF000B04204D80226BE4201D90020C3E73146C4
:102C0000019806F0A1FD0546002D00D10AE0012D36
:102C100002D0681C002801D12846B4E7BE42E5D1A5
:102C20000020B0E700BF0022D243314620460CF01E
:102C300045FB00900098002808D10298002805D094
:102C40003246204602990CF039FB0090009800288B
:102C50000DD1A661206A801EE169814202D8E06937
:102C6000401EE061207901210843207106E00098B0
:102C7000012801D1801E00E001200646304682E78F
:102C8000F3B587B00898006801900798006800695C
:102C90000590002500BF01A812F0E0F90490049807
:102CA000401C002802D1062009B0F0BD0121090412
:102CB0000498884206D30498020C28466D1C4100F3
:102CC00005984252049884B2202C03DB2F2C01D0AB
:102CD0005C2C00D113E0802C07DA21468AA0FDF796
:102CE0004EFB002801D00620DEE7FF2D01D3062091
:102CF000DAE728466D1C410005984452CBE700BF37
:102D0000202C01DA042611E002E00198401C019019
:102D1000019800782F28F8D0019800785C28F4D02A
:102D2000002601980078202800D2042601990898EE
:102D3000016009E0681E41000598445A202C02D029
:102D40002E2C00D002E06D1E002DF3D100BF00211B
:102D50006A0005988152002D01D10620A4E70027C2
:102D600000E07F1C79000598405A2028F9D0002FF8
:102D700004D179000598405A2E2801D1032006433A
:102D800000E06D1E002D05D0681E41000598405AD8
:102D90002E28F6D120220B2107982030FDF7B0FA1B
:102DA0000020069003900820029000BF38467F1C48
:102DB00041000598445A002C00D171E0202C03D02A
:102DC0002E2C04D1AF4202D003200643EEE7029935
:102DD0000398884201D2AF4216D102980B2802D143
:102DE000032006435CE0AF4201D003200643AF421C
:102DF00000D955E02F46082003900B20029006983A
:102E00008006000E0690D1E7802C0FDB02200643DF
:102E1000FF21B631204605F055FE044680202040B3
:102E2000002803D06006400E3A490C5CFF2C11DDEF
:102E30000298401E0399884204D803200643029852
:102E40000390B3E722120399481C0390079820309F
:102E500042541EE0002C05D021462FA0FDF78FFA2A
:102E6000002803D05F240320064312E0412C05DB39
:102E70005A2C03DC0221069808430690612C08DBDB
:102E80007A2C06DC0121069808430690204620385B
:102E900084B20399481C039007982030445485E776
:102EA00000BF079820300078E52803D10521079856
:102EB000203001700298082803D106988006000E81
:102EC00006900C21069808400C2804D0069880072C
:102ED000800F032801D10220064302203040002841
:102EE0000DD10698C007C00F002801D0102006435E
:102EF000042106980840002801D0082006430798BE
:102F00002030C6720020CFE62A3A3C3E7C223F7F2A
:102F100000000000F9AD01002B2C3B3D5B5D000083
:102F2000FFB589B01F4606AA0121099802F06AFB85
:102F3000002802D001200DB0F0BD069805903F207A
:102F400001900820039003E003984006000E0390D0
:102F5000039800280BD003990598FDF71FF90090FE
:102F60000199FDF71BF9012189028842ECD80398E9
:102F7000002801D1FF200390012109033846FDF705
:102F8000C6F93E46FF36BF3600200890019C78E027
:102F9000089881000A984558642D08D801D10598F1
:102FA00004E064210598FDF7F9F8684305466119C6
:102FB0000598814202D86019A04201D20598051BEC
:102FC000002D00D166E021463046083011F066FD44
:102FD000294630460C3011F061FD0B9830712046C7
:102FE0000199FDF7DBF800900399FDF7D7F80790FA
:102FF00020460199FDF7D2F800900399FDF7CEF82D
:10300000C8B2049020460199FDF7C8F8491CC8B21F
:1030100002900498707007988008C02108400299B7
:103020000843B0700798F0706119481E0199FDF7C8
:10303000B5F800900399FDF7B1F807906119481EA3
:103040000199FDF7ABF800900399FDF7A7F8C8B216
:1030500004906119481E0199FDF7A0F8491CC8B2F7
:1030600002900498707107988008C0210840029966
:103070000843B0710798F07110360898401C08900A
:1030800064190898042805D2002C03D005988442BE
:1030900000D27DE700BF0949F81DFF30F83011F07C
:1030A00009FD012300223946099802F01DFB002882
:1030B00001D001203FE700203DE7000055AA0000B5
:1030C00070B50446204608F04BFB0546FEF75CFA57
:1030D00070BD000070B504462546686880472246EA
:1030E0000249286811F0ACFE70BD0000D530000028
:1030F000F0B585B005460C46012D0DD1002016F027
:103100002BFD039003A8FFF7DBFF0646324619218B
:1031100033A00DF0E3F961E0072D59DB6068FDF79E
:1031200090F986B2A068FDF78CF9C7B2E068FDF7A8
:1031300088F9C0B203902069FDF783F9C0B202900C
:103140006069FDF77EF9C0B20190A069FDF779F9D9
:10315000C0B200902448864203DC7D2000018642F4
:1031600004DA22A00DF0BAF905B0F0BD002F01D0AD
:103170000C2F03DD26A00DF0B1F9F5E70398002828
:1031800002D003981F2803DD29A00DF0A7F9EBE773
:103190000298172803DD2DA00DF0A0F9E4E70198AF
:1031A0003B2803DD31A00DF099F9DDE700983B28BD
:1031B00003DD36A00DF092F9D6E7009A0199029846
:1031C00011F028FB39463046039A11F0F3FA05E076
:1031D00036A00DF083F944A00DF080F900BFC3E7DD
:1031E000252E2A7300000000330800007965617203
:1031F000206973206F7574206F662072616E676539
:10320000205B323030302D323039395D0A00000019
:103210006D6F6E7468206973206F7574206F6620FF
:1032200072616E6765205B312D31325D0A000000EE
:10323000646179206973206F7574206F66207261F4
:103240006E6765205B312D33315D0A00686F7572E2
:10325000206973206F7574206F662072616E6765D8
:10326000205B302D32335D0A000000006D696E7501
:103270007465206973206F7574206F662072616EAB
:103280006765205B302D35395D0A00007365636F1B
:103290006E64206973206F7574206F662072616E92
:1032A0006765205B302D35395D0A0000706C656103
:1032B000736520696E7075743A2064617465205B73
:1032C00079656172206D6F6E746820646179206821
:1032D0006F7572206D696E207365635D206F72205B
:1032E000646174650A000000652E673A20646174A9
:1032F00065203230313820303120303120323320D7
:103300003539203539206F7220646174650A0000F8
:103310000146002901D0002070470020FCE701464B
:10332000002901D0002070470020FCE710B50248BA
:1033300001F030FB002010BDC8A90100F1B58EB02E
:10334000002009900590344A07CA02AB07C30E99C2
:10335000002901D00E9900E00021084606A901F0DD
:10336000E4FC0A900A98002806D02CA00DF0B6F8CC
:103370000020C0430FB0F0BD08990698FDF794FDFA
:1033800001229202002301910090FCF731FF0446D4
:103390000D46002005902CE00121890200202A46DC
:1033A000611A824100DA27E00122920200232046BE
:1033B0002946FCF71DFF0A260027104619460B93E5
:1033C0000C9232463B46FCF739FF01229202002361
:1033D00001910090FCF70CFF09900122920200235A
:1033E00020462946FCF704FF04460D460598401C7C
:1033F000059005980228CFDB00BF06990898019137
:1034000000900598800002A90B58214608A0099A4F
:103410000DF064F80020ADE798A901006466735FC1
:10342000737461746673206661696C65642E0A004A
:103430006469736B20667265653A2025642E256485
:10344000202573205B20256420626C6F636B2C2029
:1034500025642062797465732070657220626C6FD8
:10346000636B205D0A000000F8B5044660880228FE
:1034700005D1276A38460CF003FE0020F8BD266A05
:1034800030460CF06FFC0546002D01D12062F5E7B7
:103490000B20C043F2E7F7B582B017460298056AE1
:1034A000FF2105313846FCF779FE0746002F02D18F
:1034B000401F05B0F0BD002417E0A9880919890054
:1034C000286840580190FF20053060430399461852
:1034D0000120307008207070FF20053070800822B5
:1034E000301D01990EF00FFC641CBC4204D2A88868
:1034F0000019E9888842E0D3A8880019A8802046EE
:10350000FF2105314843D4E7F8B504460E46174677
:10351000206A00903A46314600980CF043FC05467C
:10352000002D00D1F8BD2846FCE703460020704777
:10353000F0B585B00446606800782F283ED16068F9
:10354000407800283AD10121090460690840002828
:1035500034D000270CF060FD09200DF071FD0090C3
:103560000098466801E07F1C36680098001D86427E
:10357000F9D1B900084608300DF044F80546002D91
:1035800016D02846083028600020A880EF80002749
:103590000098466808E030460C3801900198BA005F
:1035A000296888507F1C36680098001D8642F2D139
:1035B0000CF042FD2562002005B0F0BD6168481C9A
:1035C0000CF000FC02900298002802D11920C043A0
:1035D000F2E7032102980CF037FC039003980028CF
:1035E00003D00398801D002805D102982062042092
:1035F00060800020E0E7002020620B20C043DBE772
:10360000024600207047F8B504460D461646206A6B
:10361000009033462A46E16900980CF09BFC07466F
:10362000E069C019E0613846F8BD0000F8B507460A
:103630000D46144628782F2812D1687800280FD11B
:1036400020602148E080E0880121C9038843E080B0
:10365000E0881E490843E080002060612062F8BDD8
:10366000681C0CF0AFFB0646002E28D0002020601E
:10367000FF20B730E080307D002805D1E0880121AF
:1036800049030843E08016E0307D012805D1E08839
:10369000032149030843E0800DE0307D102805D167
:1036A000E088012109030843E08004E0E08801216B
:1036B000C9030843E080002060612062CFE700BFBB
:1036C0000820C043CBE70000B6810000494000005D
:1036D000F8B504460D461646206A009033462A4641
:1036E000E16900980CF07AFC0746E069C019E061D6
:1036F0003846F8BD70B5044600256088022804D11C
:10370000266A30460CF0BCFC0DE0608800280AD127
:10371000266A304603F05AFA0546002D02D130469B
:103720000CF0AEFC00BF284602F07CFC70BD70B50A
:103730000446256A284604F0C2FD0646304602F0DB
:1037400071FC70BDF7B5CAB006461746306A49909D
:10375000FF2105313846FCF721FDFF2105314843A3
:103760000746002F02D1401F4DB0F0BD00243CE0C1
:10377000FF20053060434B99451803A9499804F090
:1037800056FC02900298002803D108A880780028EF
:1037900000D12BE008A88078002802D008A80230C9
:1037A00001E005A801300190002028706846007DE6
:1037B00010210840002802D00220287001E00120DA
:1037C000287001980EF081FA6870FF20053068803B
:1037D000021F281D01990EF096FA641CFF20053087
:1037E0006043B84200D301E000BFC1E700BF002C36
:1037F00003D1029802F016FCB6E7FF2005306043C3
:10380000F1690818F0612046FF2105314843ABE714
:10381000F7B582B006460F461048381800281AD16E
:103820000090346A6069019004980568E068A842D5
:1038300005D36561204604F09DFD009004E0294613
:10384000204603F05FFA009001986061009802F052
:10385000E9FB05B0F0BD2C20C043FAE70000ACAD99
:10386000F8B504460D460026608800280CD1276A6A
:103870002946384603F046FA0646002E03D17869F9
:10388000E0617869F8BD14E06088022811D1276AE8
:10389000FF2105312846FCF781FC0146009038469F
:1038A00004F0B2FC0646002E02D1E561E069E9E7CA
:1038B00000BF304602F0B6FBE4E70000F0B587B089
:1038C00006460020069040A00068049001200003F6
:1038D0000CF098FE0746002F02D1801F07B0F0BD04
:1038E000002E04D138460CF0CBFB701FF6E7002009
:1038F0000590304605F016FF0446601C00282ED1C6
:1039000005F010FF0446601C002808D12FA00CF021
:10391000E5FD38460CF0B4FB2220C043DEE7354815
:103920000CF070FE06900698002805D138460CF081
:10393000A7FB0520C043D1E701200590A0002E4938
:103940000E50032130460CF07FFA20463030694695
:103950000874E2B204A9069804F076F803E0204661
:103960003030694608741022002168460DF040F896
:103970000F206946087001231B033A4604A803F090
:103980003DFC054638460CF07BFB002705980128D6
:103990000ED106980CF074FBE2B204A9002004F0EA
:1039A00053F80020A100144A505030460CF0DAF9C8
:1039B000002D07D0294611A00CF090FD284602F0FA
:1039C00031FB8BE7002089E7303A0000736F727299
:1039D000792C207468657265206973206E6F20737E
:1039E0007061636520746F20646F206D6B66732156
:1039F000200A00003C1000001C020020666F726D5F
:103A00006174206572726F722C20726573756C74AC
:103A10003D25640A00000000F0B587B005463AA0D5
:103A200000680390002005F07DFE0446601C00281D
:103A300003D10820C04307B0F0BD204630306946AE
:103A40000873A100314A2868505004AA2021286830
:103A50000CF0A8F900280AD1012109030598884231
:103A600005D92B480CF03AFD0420C043E3E7294870
:103A70000CF0C8FD0646002E04D1A100234A505088
:103A8000801FD8E7012203A9304603F0DDFF074677
:103A9000002F27D1234620A2082101A80EF090F87C
:103AA00030200CF0AFFD0090009800280CD10122CE
:103AB00003A903F0C9FF0021A20014488150304639
:103AC0000CF0DEFAB81FB6E701A9009804F032F94D
:103AD0000746002F00D006E0EE6000980CF0D0FA08
:103AE0000020A8E700BF012203A9002003F0ACFFDB
:103AF0000020A100054A505030460CF0C1FA38466B
:103B000002F090FA97E70000303A00001C02002013
:103B100010B401003C10000025643A2F00000000A2
:103B2000F0B585B00446206A01900198002803D1C1
:103B30000820C04305B0F0BD0199C86802F058FAEA
:103B400002900298002802DA0820C043F2E7FF2022
:103B500001300CF057FD03900398002801D1801F1D
:103B6000E8E7606800904CA2FF210131029B0398B6
:103B70000EF026F80121090460690840002833D0BE
:103B800040216069084000280CD0039803F094FAA3
:103B90000746002F06D003980CF072FA384602F060
:103BA00041FAC7E730200CF02DFD00900098002866
:103BB00005D103980CF064FA0520C043BAE70399D5
:103BC000009804F0B7F8074603980CF059FA002F54
:103BD00006D000980CF054FA384602F023FAA9E710
:103BE000009820620020A5E70126207D30400028B3
:103BF00001D0022006432A4960690840022108409A
:103C0000002801D0022006434021606908400028B6
:103C100001D01020064301214902606908400028B4
:103C200001D008200643802160690840002801D0A7
:103C3000042006431B480CF0E5FC0546002D04D18A
:103C400003980CF01DFAA81F74E732462846039922
:103C500003F03CFF074603980CF012FA002F11D135
:103C60006869E061E868A0612562012189026069F4
:103C7000084000280DD02846E96803F043F8686939
:103C8000E06106E028460CF0FBF9384602F0CAF97C
:103C900050E700204EE7000025643A25730000003D
:103CA000030020002C100000F7B582B004460F4638
:103CB0006088022803D11B20C04305B0F0BD256AEF
:103CC00001AB39462846049A04F088F8064668692C
:103CD000E061002E01D10198EFE7304602F0A2F931
:103CE000EBE70000F0B585B005460E461746E868DC
:103CF00002F07EF901900198002803DA0820C04301
:103D000005B0F0BDFF2001300CF07CFC0446002C17
:103D100001D1801FF4E70297009609A2FF2101312B
:103D20002046019B0DF04CFF2046029904F0BFF99C
:103D3000039020460CF0A4F9039802F073F9DFE732
:103D400025643A2573000000F7B5D8B01546589998
:103D5000C86802F04DF911901198002803DA082084
:103D6000C0435BB0F0BDFF2001300CF04BFC0746B8
:103D7000002F01D1801FF4E75998009032A2FF2153
:103D800001313846119B0DF01BFF12A9384604F093
:103D90005DFA064638460CF073F9002E4FD100202C
:103DA00028602B48E88010A8007C102108400028DB
:103DB00007D0E888C9028843E880E8882549084395
:103DC000E88010A8007CC007C00F002803D0E88856
:103DD00092218843E8801298686110A88489E006DF
:103DE000C00E039064112007000F049024111A489C
:103DF0002018059010A8C489E006800E0090641178
:103E0000A006800E0190A41102942C22002106A885
:103E10000CF0EEFD104950390598401A0B900498AB
:103E2000401E0A9003980990029C089401980790FC
:103E30000098069006A815F0A3FE286200BF304641
:103E400002F0F0F88DE7000025643A2573000000C9
:103E5000B681000049400000BC070000F0B585B005
:103E600005460C46E86803900398437812A20421A3
:103E700002A80DF0A5FE03AA01A902A802F0BCFE4B
:103E80000646002E04D0304602F0CCF805B0F0BD56
:103E90000398006A801E039949894843009003985B
:103EA000478901994F43A760009860600398808913
:103EB00020600020EAE7000025643A00FEB50546D0
:103EC0000E46E86802F094F80746002F02DA082050
:103ED000C043FEBDFF2001300CF094FB0446002CD3
:103EE00001D1801FF5E73B4608A2FF2101312046A2
:103EF00000960DF065FE204604F0AEFA01902046D3
:103F00000CF0BEF8019802F08DF8E2E725643A253E
:103F100073000000F8B5044613A000680090E7683D
:103F2000206805F0FFFB0646701C002802D108201F
:103F3000C043F8BD30463030694608700022104654
:103F400003F082FD0546002D03D0284602F06AF8F2
:103F5000EFE70020E060B100044A505038460CF012
:103F60008FF80020E5E70000303A00001C02002036
:103F7000F7B582B004460F466088022803D11B20A3
:103F8000C04305B0F0BD256A01AB39462846049A06
:103F900004F0D7FA06466869E061E868A061002E7F
:103FA00001D10198EDE7304602F03CF8E9E7000066
:103FB000004870471002002070B504460025002C10
:103FC00002D10C20C04370BD20694068002804D095
:103FD00020694168204688470546002D01DA2846B9
:103FE000F1E760680CF04CF8002060602846EAE7D2
:103FF00070B504460D461646002C02D06088022893
:1040000002D00420C04370BD2069C069002806D0DA
:10401000206932462946C36920469847F3E72C2099
:10402000C043F0E770B504460E46002C01D1401F96
:1040300070BD20698069002802D12C20C043F7E7B9
:10404000206931468269204690470546002D00DBF5
:10405000E5612846ECE70000F7B582B00446174654
:10406000002C02D1401F05B0F0BD0020039900F0E4
:10407000E3FB0646002E01D1801FF4E7304600F036
:104080001BFA0546002D05D130460BF0F9FF08203C
:10409000C043E8E7E560A868806820610020608090
:1040A0006761A061E0612562A8680079C007C00F60
:1040B000002816D13146686800F04DFE002804D172
:1040C0001EA00DF0EEFD606007E03146686800F06C
:1040D00042FE00900DF0E5FD606030460BF0D0FF31
:1040E00000E0666020690068002807D160680BF076
:1040F000C7FF002060602C20C043B4E7206901683E
:10410000204688470190002806DA60680BF0B8FF67
:10411000002060600198A6E7012109066069084354
:10412000606108123840002805D0022060804900F4
:10413000606908436061002095E700002F000000DF
:10414000F8B504460D4616460027002C01D1401F45
:10415000F8BD2069C068002802D12C20C043F7E7D1
:10416000206932462946C36820469847071E04DA6C
:10417000012189066069084360613846E8E7F3B5C4
:1041800083B00020029000260027039900F054FB22
:104190000746002F03D10820C043029040E00020D2
:1041A000049900F049FB0646002E03D10820C043C5
:1041B000029035E0384600F07FF90446304600F0C2
:1041C0007BF90546AC4227D1A068406A002803D19C
:1041D0002C20C043029022E0A0680079C007C00FE5
:1041E000002807D0A06832463946436A20469847DF
:1041F000029014E03146686800F0ADFD0190394648
:10420000606800F0A8FD0090A068436A2046019A0B
:1042100000999847029002E01820C043029000BF26
:1042200038460BF02DFF30460BF02AFF029805B000
:10423000F0BD0000F3B581B00C460020019900F0FC
:10424000FBFA0646002E01D1401EFEBD304600F0AE
:1042500033F9051E05D130460BF012FF0820C0438C
:10426000F3E730782F2802D17078002805D0314646
:10427000686800F070FD002810D100202060FF2049
:10428000B730E080E0881A490843E0800020606190
:10429000206230460BF0F4FE0020D6E7A868006AE2
:1042A000002805D130460BF0EBFE2C20C043CCE7B4
:1042B000A8680079C007C00F002807D0A868224668
:1042C0003146036A2846984707460BE0314668683E
:1042D00000F041FD0090A8682246036A2846009934
:1042E0009847074630460BF0CBFE3846ADE7000056
:1042F00049400000F8B507463946002000F09CFA16
:104300000646002E01D1401FF8BD304600F0D4F81B
:10431000041E02D10825ED4334E0304604F0DCFAF7
:10432000002802D11625ED432CE0A068C0690028C2
:1043300025D0A0680079C007C00F002818D13146E9
:10434000606800F008FD002806D1A06810A1C269CD
:1043500020469047054614E03146606800F0FBFCBB
:104360000090A068C269204600999047054608E081
:10437000A0683146C26920469047054601E02C25D9
:10438000ED4300BF30460BF07BFE2846BCE7000043
:104390002F00000070B504460D461646002C01D1D2
:1043A000401F70BD20690069002802D12C20C04345
:1043B000F7E7206932462946036920469847F0E727
:1043C000F7B582B00546174639010398FF30BF3074
:1043D0000C182078802806D02078002803D00B20E5
:1043E000C04305B0F0BD207901900198002802D1AA
:1043F0000B20C043F5E701982870207A617A090202
:104400000843A17A09040843E17A09060843686071
:10441000207B617B09020843A17B09040843E17BFF
:1044200009060843A86068684202394612A00CF0E9
:1044300055F8A868C00A002806D1A868410817A244
:1044400017A00CF04BF815E0A868C60AB00A0028BF
:1044500008D128894005820D13A3314613A00CF022
:104460003DF806E0B205920DB10A12A30FA00CF0C0
:1044700035F800BF0020B4E7666F756E6420706188
:1044800072745B25645D2C20626567696E3A202535
:10449000642C2073697A653A200000004B420A00C0
:1044A00025642573000000004D420A0025642E2576
:1044B0006425730047420A00F8B5064600200090C4
:1044C000002700F089F8174D23E06868002802D023
:1044D000A868002800D11BE06868FBF75AFF044673
:1044E000BC4206D3224631466868FBF77DFF0028B0
:1044F00000D00DE0012C08D93046FBF74AFFA0425E
:1045000003D9305D2F2800D002E00095274600BF78
:104510001035044840308542D7D300F037FC00986E
:10452000F8BD0000D806002008B51A480068002829
:1045300004D019A00BF0D2FF002008BD10220021EA
:104540001A480CF055FA4022002119480CF050FA94
:104550000822002117480CF04BFA012216A1184836
:104560000CF012FCFF220132002116480CF040FA38
:104570002F2014490870FEF7D9FE0020034612A22E
:1045800013A1009000F07CF801200249086000208F
:10459000D3E700001802002064667320616C726526
:1045A00061647920696E69742E0A0000C8060020D3
:1045B000D80600201002002066736C6F636B000049
:1045C0001807002010010020646576667300000063
:1045D0002F6465760000000010B50624E44305E072
:1045E0000021C94303480CF049FC0446E01D0028A3
:1045F000F6D010BD18070020F3B581B00D46002697
:10460000002D03D028460BF0DDFB0646002E05D119
:104610001920C0430DF0D0F8701EFEBDFFF7DCFF7F
:1046200000240FE0A00015490858002809D0A10077
:10463000124A515808680199FBF7B2FE002800D1D0
:1046400002E0641C042CEDDB00BF00F09FFB042C97
:1046500010DAA00009490F587869002806D12C20EB
:10466000C0430DF0A9F80020C043D6E73046796971
:104670008847D2E70020C043CFE70000C8060020EB
:10468000FFB58BB0002500200A900B98002801D1BF
:1046900000270BE00B980BF095FB071E06D11920A5
:1046A000C0430DF089F8781E0FB0F0BDFFF794FFFE
:1046B0005C4C0BE02068002807D0216808680D9941
:1046C000FBF76EFE002800D104E0241D5548103091
:1046D0008442EFD300BF00F059FB524810308442AF
:1046E00006D11920C0430DF067F80020C043DBE776
:1046F0002068002803D02068C068002806D12C203C
:10470000C0430DF059F80020C043CDE700200C99BC
:1047100000F092F80A900A98002806D11A20C043A7
:104720000DF04AF80020C043BEE73FA10A98FBF70E
:1047300037FE00281BD03DA10A98FBF731FE002868
:1047400015D00122120401A80A99FFF785FC002860
:1047500009DA0A980BF094FC1A20C0430DF02CF8EB
:104760000020C043A0E701A8FFF726FC00BFFFF729
:1047700033FF304E12E0B068002804D1002D01D183
:1047800035460AE009E070680C99FBF709FE00283D
:1047900003D1401F0DF010F83BE0103625484030A3
:1047A0008642E8D3002D06D1864204D12220C043A0
:1047B0000DF002F82DE00A9868602068A8602F606C
:1047C00000F0E4FA002F0DD0032128680BF03CFB29
:1047D000002807D0FFF700FF1022002128460CF028
:1047E00007F916E02068C3682846149A0E9998477E
:1047F00000280CDA002F02D028680BF0B3FAFFF77C
:10480000EBFE1022002128460CF0F2F801E0002017
:104810004AE700F0BBFA0A980BF032FC0020C043D4
:1048200042E70000C80600202F0000002F646576D4
:1048300000000000D8060020F3B583B003980028DC
:1048400001D151480390049800782F2823D0039871
:10485000FBF79FFD07460498FBF79BFD3818801C6B
:1048600001900BF0CFFE0646002E01D105B0F0BD41
:104870000398FBF78EFD07460498FBF78AFD38186E
:10488000801C01900498009040A23046039B01993F
:104890000DF096F906E004980DF003FA0646002E96
:1048A00000D1E3E7344625462C46029557E02778A9
:1048B0002E2F26D16078002801D1641C21E0607879
:1048C0002F2809D1A41C00E0641C20782F2802D1D5
:1048D00020780028F8D142E060782E2811D1A07805
:1048E000002801D1A41C26E0A0782F2809D1E41CBF
:1048F00000E0641C20782F2802D120780028F8D10D
:1049000019E001E02F706D1C21780F46641C00290E
:1049100001D02F2FF6D12F2F09D12F2028706D1CF9
:1049200001E02778641C2F2FFBD0641E02E0002FCB
:1049300000D115E013E06D1E0298854204D2304686
:104940000BF09EFB002091E700E06D1E0298A8424C
:1049500004D228462038C07F2F28F6D100BFA6E712
:1049600000BF002028706D1EB54204D028782F2883
:1049700001D1002028703078002803D12F2030701A
:1049800000207070304671E71001002025732F253C
:1049900073000000F8B5054600270026FFF71CFE4F
:1049A000164C16E02068002804D1002E01D12646BE
:1049B0000EE00DE0296822681068FBF7F1FC002882
:1049C00006D11720C0430CF0F7FE0027FF4304E098
:1049D000241D0A4810308442E4D300BF002E05D1C4
:1049E0002220C0430CF0E8FE771E02E0002F00D129
:1049F000356000F0CBF93846F8BD0000C80600204D
:104A00000146002008627047F7B584B00446164698
:104A1000206A02900298FDF701F8002803D00B20CD
:104A2000C04307B0F0BD029880680290FF210531B5
:104A30003046FBF7B3FB0646002E01D1401FF0E7DE
:104A4000002700BF25E0FF20053078430599451871
:104A5000E0690101029808180190019840680390EC
:104A600001980068012802D10220287001E001208D
:104A7000287003980DF029F96870FF2005306880D0
:104A8000021F281D03990DF03EF9E069401CE0610A
:104A90007F1CB74203D2A169E0698842D3D338466C
:104AA000FF2105314843BCE710B50248FFF772FF0C
:104AB000002010BDCCAE010003460B20C043704760
:104AC000F7B582B00298FCF7A9FF002802D00020B9
:104AD00005B0F0BD039800782F2809D103984078DD
:104AE000002805D10298C168049801600298EFE798
:104AF000029886680298C0680090039C00E0641CDD
:104B00002078002802D020782F28F8D0274600E00F
:104B1000641C20782F2802D020780028F8D153E098
:104B200000200190002547E029018819FCF776FF55
:104B3000002801D00020CBE72901891948680DF031
:104B4000C4F8E11B884236D1E21B29018919486863
:104B500039460DF0C3F800282DD128018019C0680E
:104B6000009000E0641C2078002802D020782F28D4
:104B7000F8D0274600E0641C20782F2802D0207847
:104B80000028F8D13878002805D1049900980860E9
:104B9000280180199CE728013058012805D12801F7
:104BA000801986680120019009E0002F00D006E0FE
:104BB000280180198CE76D1C00988542B4D300BF92
:104BC0000198002800D101E0002EA9D100BF0020EB
:104BD0007EE702469069884202D3D161D06970476E
:104BE0000B20C043FBE710B503460C46002A02D158
:104BF0000B20C04310BD1146D9600020FAE7000029
:104C0000F8B50446276AFE683046FCF707FF00281F
:104C100002D00B20C043F8BD174960690840002846
:104C200002D00420C043F6E76A4630466168FFF7C9
:104C300047FF0546002D02D10820C043EBE7286856
:104C4000012808D1012109046069084000280BD11E
:104C50000820C043DFE701210904606908400028FB
:104C600002D00820C043D6E725620098A06100204A
:104C7000E06100BFCFE7000043060000F8B504463E
:104C80000F461646206A00900098FCF7C7FE0028E1
:104C900002D00B20C043F8BDE169A069401AB042C0
:104CA00001D9354602E0E169A069451A002D07D017
:104CB00000988068E26981182A4638460BF023FE86
:104CC000E0694019E0612846E5E70000FEB50646C8
:104CD0000F461446F068009001AA39460098FFF785
:104CE000EFFE0546002D02D10820C043FEBD002086
:104CF00020600A48E0802868012808D1E088012166
:104D0000C9038843E080E08805490843E080E868FB
:104D100060610020206200BFE8E70000B68100006B
:104D20004940000001460020704770B505460E4618
:104D30002846FFF7C1FB0446002C09D0A068806913
:104D4000002805D0A068314682692046904770BD92
:104D50000020C043FBE7F8B506460D463046FBF79A
:104D600018FB07462846FBF714FB874201D10020B9
:104D7000F8BD3046FBF70DFB441920782F2802D0F0
:104D8000AC4200D0641E2046F2E7000010B5024895
:104D90000CF012F810BD000018070020F8B5074607
:104DA000002439460020FFF747FD0646002E05D1B6
:104DB0001A20C0430CF000FD601EF8BDFFF70CFC8C
:104DC0001F4D0BE06868002807D031466868FBF784
:104DD000E7FA002801D12C4604E01035184840308D
:104DE0008542EFD300BF002C09D0A06800690028DD
:104DF00005D0A068016920468847002800DA17E03E
:104E00002068002802D020680AF0ACFF6068002803
:104E100002D060680BF034F91022002120460BF01C
:104E2000E7FDFFF7B3FF30460BF02AF90020C4E797
:104E3000FFF7ACFF30460BF023F90020C043BCE77E
:104E4000D8060020F8B504460E46206800900021E0
:104E5000204600F0D9FA0546002D1FD1002700BFDB
:104E6000A169009807F056FA0546002D00D014E01D
:104E7000E0690078E52803D0E0690078002804D1D3
:104E8000781C0746B04201D107E0002701212046E7
:104E900000F0F7F80546002DE2D000BF042D00D148
:104EA00007252846F8BDF3B581B0044620460FF02B
:104EB0008BFE002801D00120FEBD20460299FCF7A0
:104EC000AAFE0746A7630121090320463C30FBF7F1
:104ED0001EFA6089A18948430121C903884201D390
:104EE000084602E06089A1894843064600200090F8
:104EF00000E07608A089B04205D2304603F0ABFD51
:104F000000900028F5D0A089B0421AD2314600980E
:104F1000FBF7FDF9A1893046FBF740F9064600256D
:104F200000E0AD196089A84207D97A196078334644
:104F3000009900F0D9FB0028F3D0009803F091FD10
:104F400011E020463C3000900126002500E0AD191C
:104F50006089A84207D97A1960783346009900F031
:104F6000C3FB0028F3D06089A84201D00120A3E749
:104F70000020A1E7FEB504462068029000212046EB
:104F800000F042FA0646002E01D03046FEBDFF205A
:104F9000009001900020C043E06200BFA169029828
:104FA00007F0B8F90646002E00D067E0E069057802
:104FB000002D01D1042661E0E069C07A8706BF0EAA
:104FC000A771E52D05D008203840002807D00F2F05
:104FD00005D0FF2001900020C043E06247E00F2F82
:104FE00027D12B20005D4021084000283FD14020E0
:104FF0002840002807D0E069407B0090BF20054092
:1050000001952069E062019885420ED1E069417BFB
:105010000098814209D1E169029A1069FDF766FBA7
:10502000002802D00198401E00E0FF20C0B201908D
:105030001DE00198002806D1E0690FF065FD009998
:10504000884200D11AE02B20005DC007C00F002865
:1050500008D10B2221462031E069FBF7AFF9002887
:1050600000D10BE0FF2001900020C043E06200214E
:10507000204600F006F80646002E8FD000BF3046CE
:1050800084E7F3B581B004462668206907462037D7
:1050900000BF01204005874201D30020A061A06924
:1050A000002801D10420FEBDB1893846FBF776F80F
:1050B00000294DD1A069401CA0616069002807D17A
:1050C00078093189884243D30020A0610420EAE7AF
:1050D000B1893846FBF762F87189491E08400028FB
:1050E00036D12046616904F02FFB0546012D01D819
:1050F0000220D8E7681C002801D10120D3E7306ADC
:10510000A8421FD80298002802D1A0610420CAE753
:1051100020466169FDF720FD0546002D01D10720DD
:10512000C1E7012D01D10220BDE7681C002801D193
:105130000120B8E729463046FFF7B5FE002801D028
:105140000120B0E7656129463046FCF764FDA061A7
:105150002761B1893846FBF721F830463C30081802
:10516000E06100209FE7F3B583B004460426206881
:105170000290FF20019000905DE0A169029807F085
:10518000C9F80646002E00D058E0E0690578002DE9
:1051900001D1042652E0E069C07A8706BF0EA771EC
:1051A000E52D0CD02E2D0AD0202138468843082822
:1051B00001D1012100E000210498814202D0FF20AA
:1051C000019030E00F2F21D140202840002807D047
:1051D000E069407B0090BF20054001952069E062B6
:1051E000019885420ED1E069417B0098814209D146
:1051F000E169029A106909F019FF002802D00198AC
:10520000401E00E0FF20C0B201900CE00198002891
:1052100005D1E0690FF078FC0099884202D00020A7
:10522000C043E0620AE000212046FFF72AFF06465D
:10523000002E00D002E0A06900289ED100BF002E01
:1052400001D00020A061304605B0F0BDF0B587B0B8
:10525000044626682B20005DA0210840002802D0CB
:10526000062007B0F0BD0020069002E00698401C22
:105270000690316906984000085A0028F6D1A26AC3
:10528000616A206A02AB07C36846C07CC007C00FD2
:10529000002822D040212B20015501270EE03B465B
:1052A00002A920462030326904F0CEF92046FFF7EB
:1052B00061FE0546002D00D002E07F1C642FEED376
:1052C00000BF642F01D10720CBE7042D01D0284671
:1052D000C7E76846C17C2B2001556846C07C022187
:1052E0000840002806D00D2106980C30FAF756FF2A
:1052F000401C00E00120059020460599FFF7A2FD23
:105300000546002D33D10598401E059000282ED06B
:10531000226905984001111A204600F075F80546EB
:10532000002D24D1204620300FF0EEFB019000BF6D
:105330003046A16906F0EEFF0546002D00D015E0CD
:105340000598C2B2E16930690090019B0AF07AF8D1
:105350000120F07000212046FFF793FE0546002D46
:1053600004D10598401E05900028E1D100BF002D12
:1053700018D13046A16906F0CDFF0546002D11D1A8
:105380002021E069FAF7C3FF0B2221462031E069B2
:10539000FAF7A4FF2B20005D18210840E16908738B
:1053A0000120F07028465CE7F8B5044626682769B6
:1053B000E06A401C002800D103E02046E16A00F0CA
:1053C00023F80546002D1DD100BF3046A16906F027
:1053D000A1FF0546002D00D010E000BFE520E169E7
:1053E00008700120F0702069B84200D306E0002167
:1053F0002046FFF746FE0546002DE6D000BF042DEF
:1054000000D102252846F8BDF8B504460E462568A9
:1054100000BF01204005864203D2F006C00E0028DE
:1054200001D00220F8BD2661A768002F03D128789B
:10543000032800DB2F6B002F08D1700929898842CF
:1054400001D30220EEE7286BA0611FE06889A989DB
:105450004843009012E03946204604F075F90746AB
:10546000781C002801D10120DCE7022F02D3286A32
:10547000B84201D80220D5E70098361A0098864233
:10548000E9D239462846FCF7C6FBA0616761A069EE
:10549000002801D10220C5E7A9893046FAF77EFE2F
:1054A000A1694018A061A9893046FAF777FE28461D
:1054B0003C300818E0610020B4E70000F7B582B086
:1054C00005460E46002001900024002D01D105B0B4
:1054D000F0BDFF2001300BF095F80746002F00D1FA
:1054E000F5E7284608F0ACFC01900198002809D1A6
:1054F000002E03D129462EA00AF0F0FF38460AF00C
:10550000BFFDE4E737E001980AF0CEF80446002C2E
:1055100000D131E0211D2BA00CF0B4FB00282AD0D3
:10552000211D29A00CF0AEFB002824D0231D2A4603
:1055300026A138460CF094FB2078012813D1384678
:1055400015F05AF8002806D0002E14D1394618A0BC
:105550000AF0C4FF0FE0049800280CD039461DA0C3
:105560000AF0BCFF07E02078022804D13146384613
:10557000049AFFF7A3FFC6E700BF0198FCF726FBDC
:1055800038460AF07DFD284615F036F8002806D08A
:10559000002E0BD1294606A00AF0A0FF06E00498D1
:1055A000002803D029460FA00AF098FF00BF8EE71D
:1055B00063616E6E6F742072656D6F76652027254E
:1055C00073270A002E0000002E2E000025732F25C1
:1055D0007300000072656D6F766564202725732760
:1055E0000A00000072656D6F7665642064697265FB
:1055F00063746F727920272573270A000146002003
:1056000070470000FEB506460C461546B000264918
:105610000F58002F01D10120FEBD012C11D10C2209
:10562000002168460BF0E4F96A46202138460AF06A
:10563000B9FB009828600098002801D10120EBE711
:105640002FE0022C0CD10C22002168460BF0D0F97F
:105650006A46202138460AF0A5FB0198288020E000
:10566000032C0FD10C22002168460BF0C1F96A46C9
:10567000202138460AF096FB01990298FAF78EFD30
:1056800028600EE0002C05D10022212138460AF0C6
:1056900089FB06E0042C04D12A46222138460AF070
:1056A00081FB0020B8E700001C020020FEB5044684
:1056B0000D4616461F46A0000849085800903B4674
:1056C0002A46314600980AF045FC01900198B842FC
:1056D00001D10020FEBD0120FCE700001C020020DB
:1056E0000146002070470000FEB504460D461646F0
:1056F0001F46A0000849085800903B462A463146FC
:1057000000980AF06BFC01900198B84201D100208A
:10571000FEBD0120FCE700001C020020F8B5054694
:105720000E46002424E00C20604338490858002825
:105730001CD00C2060434018007AA84216D10C21DE
:105740006143324FC9194A68FF2111316943304F13
:10575000C919084610300C2161432C4F7B58314643
:10576000984700210C2060433A461150601CC4B297
:10577000042CD8DB002421E0AC4200D11CE0FF2047
:105780001130604322494018807A022813D1FF204B
:10579000113060434018C17BFF20113068431C4A20
:1057A0008018C07B814206D10421FF20113068435C
:1057B0008018C17304E000BF601CC4B2042CDBDBA2
:1057C00000BFFF201130684311494018C07B0428F6
:1057D0001BDAFF21113169430D4A8918C97B890001
:1057E0000C4A505814F0D8FD0021FF2011306843B6
:1057F000074A8018C07B8000064A11500421FF2010
:1058000011306843024A8018C173F8BDCC440020AF
:105810008C4000207C40002010B5002404E020468D
:1058200000F006F8601CC4B2042CF8DB10BD0000C8
:1058300070B50546FF20113068433949441800BF50
:10584000042D08DB00BF37A00AF048FE3C493DA00C
:105850000FF0E0F900BF00BFA07A00284FD0012868
:1058600004D0022812D003284AD13DE000F096F877
:1058700020810220A0720020E0720120207300200D
:105880006073284600F0B0F8064646E0207B401ED4
:10589000C0B22073002826D1607B401CC0B2607368
:1058A000042819D1E07A401C02280EDAE07A401C64
:1058B000800031490858002807D0E07A401CE07287
:1058C000012020730020607308E000212846FFF7C4
:1058D00025FF0020A07220E0607B2073284600F0A6
:1058E00083F8064600BF18E02068002804D020682E
:1058F000401E2060002801D10020A0720DE00CE0C5
:1059000000BF00BF1DA00AF0E9FD0D493F310DA009
:105910000FF080F900BF00BF00BF00BF70BD0000E6
:105920008C400020617272617920696E6465782014
:105930006F7574206F6620626F756E64730000006F
:105940000604000072742D7468726561645C636F94
:105950006D706F6E656E74735C6E65745C6C776988
:10596000702D322E302E335C7372635C636F726500
:105970005C646E732E63000090030020756E6B6E86
:105980006F776E20646E735F7461626C6520656E04
:105990007472792073746174653A000070B500BF49
:1059A000FAF78AFC85B2002411E0FF201130604331
:1059B00009494018807A022807D1FF20113060433E
:1059C00040180089A84200D1EAE7601CC4B2042C48
:1059D000EBDB284670BD00008C40002000BF00BFFC
:1059E00000BF00BF70470000F1B58CB0FF2111313E
:1059F0000C9848434D49451800BFE87A022808DB57
:105A000000BF4BA00AF06AFD4F4950A00FF002F909
:105A100000BF00BFE87A800059490858002807D124
:105A200000210C98FFF77AFE0020A8720DB0F0BD9F
:105A300028461030FAF7ADFC123080B20022014641
:105A40000290104608F03CFA0746002F69D000206B
:105A5000089009900A90288905F09AFF6946088401
:105A6000012108A881700902684681840C2208A9D6
:105A7000384609F0BDF92C461034641E0C2600BFD0
:105A8000641C05940020049004E00498401CC0B2FB
:105A90000490641C20782E2802D020780028F4D1AD
:105AA0000598201A80B2069031463846049A09F0CB
:105AB00041F8701C83B23846069A059909F07AFAC3
:105AC0000498401C301886B220780028D8D10022D3
:105AD0003146384609F02EF8701C86B2FF2101319C
